{
  "_format": "hh-sol-artifact-1",
  "contractName": "rpgGearNFT",
  "sourceName": "contracts/rpgGearNFT.sol",
  "abi": [
    {
      "inputs": [],
      "stateMutability": "nonpayable",
      "type": "constructor"
    },
    {
      "anonymous": false,
      "inputs": [
        {
          "indexed": true,
          "internalType": "address",
          "name": "owner",
          "type": "address"
        },
        {
          "indexed": true,
          "internalType": "address",
          "name": "approved",
          "type": "address"
        },
        {
          "indexed": true,
          "internalType": "uint256",
          "name": "tokenId",
          "type": "uint256"
        }
      ],
      "name": "Approval",
      "type": "event"
    },
    {
      "anonymous": false,
      "inputs": [
        {
          "indexed": true,
          "internalType": "address",
          "name": "owner",
          "type": "address"
        },
        {
          "indexed": true,
          "internalType": "address",
          "name": "operator",
          "type": "address"
        },
        {
          "indexed": false,
          "internalType": "bool",
          "name": "approved",
          "type": "bool"
        }
      ],
      "name": "ApprovalForAll",
      "type": "event"
    },
    {
      "anonymous": false,
      "inputs": [
        {
          "indexed": false,
          "internalType": "address",
          "name": "sender",
          "type": "address"
        },
        {
          "indexed": false,
          "internalType": "uint256[]",
          "name": "tokenIds",
          "type": "uint256[]"
        }
      ],
      "name": "NewMint",
      "type": "event"
    },
    {
      "anonymous": false,
      "inputs": [
        {
          "indexed": true,
          "internalType": "address",
          "name": "previousOwner",
          "type": "address"
        },
        {
          "indexed": true,
          "internalType": "address",
          "name": "newOwner",
          "type": "address"
        }
      ],
      "name": "OwnershipTransferred",
      "type": "event"
    },
    {
      "anonymous": false,
      "inputs": [
        {
          "indexed": true,
          "internalType": "address",
          "name": "from",
          "type": "address"
        },
        {
          "indexed": true,
          "internalType": "address",
          "name": "to",
          "type": "address"
        },
        {
          "indexed": true,
          "internalType": "uint256",
          "name": "tokenId",
          "type": "uint256"
        }
      ],
      "name": "Transfer",
      "type": "event"
    },
    {
      "inputs": [
        {
          "internalType": "address",
          "name": "to",
          "type": "address"
        },
        {
          "internalType": "uint256",
          "name": "tokenId",
          "type": "uint256"
        }
      ],
      "name": "approve",
      "outputs": [],
      "stateMutability": "nonpayable",
      "type": "function"
    },
    {
      "inputs": [
        {
          "internalType": "address",
          "name": "owner",
          "type": "address"
        }
      ],
      "name": "balanceOf",
      "outputs": [
        {
          "internalType": "uint256",
          "name": "",
          "type": "uint256"
        }
      ],
      "stateMutability": "view",
      "type": "function"
    },
    {
      "inputs": [
        {
          "internalType": "uint256",
          "name": "tokenId",
          "type": "uint256"
        }
      ],
      "name": "getApproved",
      "outputs": [
        {
          "internalType": "address",
          "name": "",
          "type": "address"
        }
      ],
      "stateMutability": "view",
      "type": "function"
    },
    {
      "inputs": [],
      "name": "getMaxSupply",
      "outputs": [
        {
          "internalType": "uint256",
          "name": "",
          "type": "uint256"
        }
      ],
      "stateMutability": "view",
      "type": "function"
    },
    {
      "inputs": [],
      "name": "getTotalMinted",
      "outputs": [
        {
          "internalType": "uint256",
          "name": "",
          "type": "uint256"
        }
      ],
      "stateMutability": "view",
      "type": "function"
    },
    {
      "inputs": [
        {
          "internalType": "address",
          "name": "owner",
          "type": "address"
        },
        {
          "internalType": "address",
          "name": "operator",
          "type": "address"
        }
      ],
      "name": "isApprovedForAll",
      "outputs": [
        {
          "internalType": "bool",
          "name": "",
          "type": "bool"
        }
      ],
      "stateMutability": "view",
      "type": "function"
    },
    {
      "inputs": [
        {
          "internalType": "uint256",
          "name": "mint_amount",
          "type": "uint256"
        }
      ],
      "name": "mint",
      "outputs": [],
      "stateMutability": "nonpayable",
      "type": "function"
    },
    {
      "inputs": [],
      "name": "name",
      "outputs": [
        {
          "internalType": "string",
          "name": "",
          "type": "string"
        }
      ],
      "stateMutability": "view",
      "type": "function"
    },
    {
      "inputs": [],
      "name": "owner",
      "outputs": [
        {
          "internalType": "address",
          "name": "",
          "type": "address"
        }
      ],
      "stateMutability": "view",
      "type": "function"
    },
    {
      "inputs": [
        {
          "internalType": "uint256",
          "name": "tokenId",
          "type": "uint256"
        }
      ],
      "name": "ownerOf",
      "outputs": [
        {
          "internalType": "address",
          "name": "",
          "type": "address"
        }
      ],
      "stateMutability": "view",
      "type": "function"
    },
    {
      "inputs": [
        {
          "internalType": "uint256",
          "name": "tokenId",
          "type": "uint256"
        }
      ],
      "name": "pickRandomBackground",
      "outputs": [
        {
          "internalType": "string",
          "name": "",
          "type": "string"
        }
      ],
      "stateMutability": "view",
      "type": "function"
    },
    {
      "inputs": [
        {
          "internalType": "uint256",
          "name": "tokenId",
          "type": "uint256"
        }
      ],
      "name": "pickRandomFirstWord",
      "outputs": [
        {
          "internalType": "string",
          "name": "",
          "type": "string"
        }
      ],
      "stateMutability": "view",
      "type": "function"
    },
    {
      "inputs": [
        {
          "internalType": "uint256",
          "name": "tokenId",
          "type": "uint256"
        }
      ],
      "name": "pickRandomSecondWord",
      "outputs": [
        {
          "internalType": "string",
          "name": "",
          "type": "string"
        }
      ],
      "stateMutability": "view",
      "type": "function"
    },
    {
      "inputs": [
        {
          "internalType": "uint256",
          "name": "tokenId",
          "type": "uint256"
        }
      ],
      "name": "pickRandomThirdWord",
      "outputs": [
        {
          "internalType": "string",
          "name": "",
          "type": "string"
        }
      ],
      "stateMutability": "view",
      "type": "function"
    },
    {
      "inputs": [],
      "name": "renounceOwnership",
      "outputs": [],
      "stateMutability": "nonpayable",
      "type": "function"
    },
    {
      "inputs": [
        {
          "internalType": "address",
          "name": "from",
          "type": "address"
        },
        {
          "internalType": "address",
          "name": "to",
          "type": "address"
        },
        {
          "internalType": "uint256",
          "name": "tokenId",
          "type": "uint256"
        }
      ],
      "name": "safeTransferFrom",
      "outputs": [],
      "stateMutability": "nonpayable",
      "type": "function"
    },
    {
      "inputs": [
        {
          "internalType": "address",
          "name": "from",
          "type": "address"
        },
        {
          "internalType": "address",
          "name": "to",
          "type": "address"
        },
        {
          "internalType": "uint256",
          "name": "tokenId",
          "type": "uint256"
        },
        {
          "internalType": "bytes",
          "name": "_data",
          "type": "bytes"
        }
      ],
      "name": "safeTransferFrom",
      "outputs": [],
      "stateMutability": "nonpayable",
      "type": "function"
    },
    {
      "inputs": [
        {
          "internalType": "address",
          "name": "operator",
          "type": "address"
        },
        {
          "internalType": "bool",
          "name": "approved",
          "type": "bool"
        }
      ],
      "name": "setApprovalForAll",
      "outputs": [],
      "stateMutability": "nonpayable",
      "type": "function"
    },
    {
      "inputs": [
        {
          "internalType": "uint256",
          "name": "supply",
          "type": "uint256"
        }
      ],
      "name": "setMaxSupply",
      "outputs": [],
      "stateMutability": "nonpayable",
      "type": "function"
    },
    {
      "inputs": [
        {
          "internalType": "bytes4",
          "name": "interfaceId",
          "type": "bytes4"
        }
      ],
      "name": "supportsInterface",
      "outputs": [
        {
          "internalType": "bool",
          "name": "",
          "type": "bool"
        }
      ],
      "stateMutability": "view",
      "type": "function"
    },
    {
      "inputs": [],
      "name": "symbol",
      "outputs": [
        {
          "internalType": "string",
          "name": "",
          "type": "string"
        }
      ],
      "stateMutability": "view",
      "type": "function"
    },
    {
      "inputs": [
        {
          "internalType": "uint256",
          "name": "tokenId",
          "type": "uint256"
        }
      ],
      "name": "tokenURI",
      "outputs": [
        {
          "internalType": "string",
          "name": "",
          "type": "string"
        }
      ],
      "stateMutability": "view",
      "type": "function"
    },
    {
      "inputs": [
        {
          "internalType": "address",
          "name": "from",
          "type": "address"
        },
        {
          "internalType": "address",
          "name": "to",
          "type": "address"
        },
        {
          "internalType": "uint256",
          "name": "tokenId",
          "type": "uint256"
        }
      ],
      "name": "transferFrom",
      "outputs": [],
      "stateMutability": "nonpayable",
      "type": "function"
    },
    {
      "inputs": [
        {
          "internalType": "address",
          "name": "newOwner",
          "type": "address"
        }
      ],
      "name": "transferOwnership",
      "outputs": [],
      "stateMutability": "nonpayable",
      "type": "function"
    }
  ],
  "bytecode": "0x6080604052604051806104c001604052806104858152602001620061396104859139600990805190602001906200003892919062001428565b50604051806080016040528060578152602001620060e260579139600a90805190602001906200006a92919062001428565b506040518060400160405280600d81526020017f3c2f746578743e3c2f7376673e00000000000000000000000000000000000000815250600b9080519060200190620000b892919062001428565b506040518061028001604052806040518060400160405280600981526020017f4f626e6f78696f7573000000000000000000000000000000000000000000000081525081526020016040518060400160405280600681526020017f556e72756c79000000000000000000000000000000000000000000000000000081525081526020016040518060400160405280600881526020017f576173746566756c00000000000000000000000000000000000000000000000081525081526020016040518060400160405280600481526020017f576973650000000000000000000000000000000000000000000000000000000081525081526020016040518060400160405280600881526020017f5669676f726f757300000000000000000000000000000000000000000000000081525081526020016040518060400160405280600881526020017f527574686c65737300000000000000000000000000000000000000000000000081525081526020016040518060400160405280600581526020017f42726f616400000000000000000000000000000000000000000000000000000081525081526020016040518060400160405280600781526020017f437572696f75730000000000000000000000000000000000000000000000000081525081526020016040518060400160405280600881526020017f506174686574696300000000000000000000000000000000000000000000000081525081526020016040518060400160405280600881526020017f5472616e7175696c00000000000000000000000000000000000000000000000081525081526020016040518060400160405280600581526020017f4d75726b7900000000000000000000000000000000000000000000000000000081525081526020016040518060400160405280600581526020017f4661696e7400000000000000000000000000000000000000000000000000000081525081526020016040518060400160405280600681526020017f536d6f676779000000000000000000000000000000000000000000000000000081525081526020016040518060400160405280600681526020017f476170696e67000000000000000000000000000000000000000000000000000081525081526020016040518060400160405280600681526020017f4c657468616c000000000000000000000000000000000000000000000000000081525081526020016040518060400160405280600581526020017f4f7665727400000000000000000000000000000000000000000000000000000081525081526020016040518060400160405280600981526020017f526570756c73697665000000000000000000000000000000000000000000000081525081526020016040518060400160405280600981526020017f526564756e64616e74000000000000000000000000000000000000000000000081525081526020016040518060400160405280600881526020017f476c6f72696f757300000000000000000000000000000000000000000000000081525081526020016040518060400160405280600581526020017f526f79616c000000000000000000000000000000000000000000000000000000815250815250600c90601462000571929190620014b9565b506040518061026001604052806040518060400160405280600481526020017f48656c6d0000000000000000000000000000000000000000000000000000000081525081526020016040518060400160405280600881526020017f4d6564616c696f6e00000000000000000000000000000000000000000000000081525081526020016040518060400160405280600981526020017f5061756c64726f6e73000000000000000000000000000000000000000000000081525081526020016040518060400160405280600581526020017f436c6f616b00000000000000000000000000000000000000000000000000000081525081526020016040518060400160405280600681526020017f476c6f766573000000000000000000000000000000000000000000000000000081525081526020016040518060400160405280600781526020017f427261636572730000000000000000000000000000000000000000000000000081525081526020016040518060400160405280600a81526020017f4368657374706c6174650000000000000000000000000000000000000000000081525081526020016040518060400160405280600581526020017f426f6f747300000000000000000000000000000000000000000000000000000081525081526020016040518060400160405280600481526020017f42656c740000000000000000000000000000000000000000000000000000000081525081526020016040518060400160405280600481526020017f52696e670000000000000000000000000000000000000000000000000000000081525081526020016040518060400160405280600881526020017f4c656767696e677300000000000000000000000000000000000000000000000081525081526020016040518060400160405280600581526020017f53776f726400000000000000000000000000000000000000000000000000000081525081526020016040518060400160405280600381526020017f417865000000000000000000000000000000000000000000000000000000000081525081526020016040518060400160405280600381526020017f426f77000000000000000000000000000000000000000000000000000000000081525081526020016040518060400160405280600581526020017f537461666600000000000000000000000000000000000000000000000000000081525081526020016040518060400160405280600481526020017f57616e640000000000000000000000000000000000000000000000000000000081525081526020016040518060400160405280600681526020017f446167676572000000000000000000000000000000000000000000000000000081525081526020016040518060400160405280600481526020017f4d6163650000000000000000000000000000000000000000000000000000000081525081526020016040518060400160405280600581526020017f5370656172000000000000000000000000000000000000000000000000000000815250815250600d906013620009ef92919062001520565b506040518061032001604052806040518060400160405280600481526020017f537461720000000000000000000000000000000000000000000000000000000081525081526020016040518060400160405280600481526020017f43726f770000000000000000000000000000000000000000000000000000000081525081526020016040518060400160405280600581526020017f536e616b6500000000000000000000000000000000000000000000000000000081525081526020016040518060400160405280600581526020017f546967657200000000000000000000000000000000000000000000000000000081525081526020016040518060400160405280600581526020017f4561676c6500000000000000000000000000000000000000000000000000000081525081526020016040518060400160405280600681526020017f4d6f6e6b6579000000000000000000000000000000000000000000000000000081525081526020016040518060400160405280600681526020017f57697a617264000000000000000000000000000000000000000000000000000081525081526020016040518060400160405280600681526020017f447261676f6e000000000000000000000000000000000000000000000000000081525081526020016040518060400160405280600981526020017f4c696768746e696e67000000000000000000000000000000000000000000000081525081526020016040518060400160405280600581526020017f506561636500000000000000000000000000000000000000000000000000000081525081526020016040518060400160405280600781526020017f476972616666650000000000000000000000000000000000000000000000000081525081526020016040518060400160405280600481526020017f5765616b0000000000000000000000000000000000000000000000000000000081525081526020016040518060400160405280600681526020017f5374726f6e67000000000000000000000000000000000000000000000000000081525081526020016040518060400160405280600481526020017f46726f670000000000000000000000000000000000000000000000000000000081525081526020016040518060400160405280600681526020017f47726f756e64000000000000000000000000000000000000000000000000000081525081526020016040518060400160405280600381526020017f536561000000000000000000000000000000000000000000000000000000000081525081526020016040518060400160405280600881526020017f4d6f756e7461696e00000000000000000000000000000000000000000000000081525081526020016040518060400160405280600681526020017f56616c6c6579000000000000000000000000000000000000000000000000000081525081526020016040518060400160405280600581526020017f4e6967687400000000000000000000000000000000000000000000000000000081525081526020016040518060400160405280600681526020017f536861646f77000000000000000000000000000000000000000000000000000081525081526020016040518060400160405280600381526020017f446179000000000000000000000000000000000000000000000000000000000081525081526020016040518060400160405280600581526020017f4c6967687400000000000000000000000000000000000000000000000000000081525081526020016040518060400160405280600481526020017f4461776e0000000000000000000000000000000000000000000000000000000081525081526020016040518060400160405280600481526020017f4475736b0000000000000000000000000000000000000000000000000000000081525081526020016040518060400160405280600481526020017f5665696c00000000000000000000000000000000000000000000000000000000815250815250600e90601962000fcf92919062001587565b506040518060c001604052806040518060400160405280600181526020017f660000000000000000000000000000000000000000000000000000000000000081525081526020016040518060400160405280600181526020017f650000000000000000000000000000000000000000000000000000000000000081525081526020016040518060400160405280600181526020017f640000000000000000000000000000000000000000000000000000000000000081525081526020016040518060400160405280600181526020017f630000000000000000000000000000000000000000000000000000000000000081525081526020016040518060400160405280600181526020017f620000000000000000000000000000000000000000000000000000000000000081525081526020016040518060400160405280600181526020017f6100000000000000000000000000000000000000000000000000000000000000815250815250600f9060066200114d929190620015ee565b5060056012553480156200116057600080fd5b506040518060400160405280600781526020017f72706747656172000000000000000000000000000000000000000000000000008152506040518060400160405280600481526020017f47454152000000000000000000000000000000000000000000000000000000008152508160009080519060200190620011e592919062001428565b508060019080519060200190620011fe92919062001428565b50505062001221620012156200128e60201b60201c565b6200129660201b60201c565b6200126c6040518060400160405280601f81526020017f54686973206973206d79204e465420636f6e74726163742e205741474d4921008152506200135c60201b6200182e1760201c565b44426200127a919062001763565b6010819055506032601181905550620018a5565b600033905090565b6000600760009054906101000a900473ffffffffffffffffffffffffffffffffffffffff16905081600760006101000a81548173ffffffffffffffffffffffffffffffffffffffff021916908373ffffffffffffffffffffffffffffffffffffffff1602179055508173ffffffffffffffffffffffffffffffffffffffff168173ffffffffffffffffffffffffffffffffffffffff167f8be0079c531659141344cd1fd0a4f28419497f9722a3daafe3b4186f6b6457e060405160405180910390a35050565b620013fc8160405160240162001373919062001723565b6040516020818303038152906040527f41304fac000000000000000000000000000000000000000000000000000000007bffffffffffffffffffffffffffffffffffffffffffffffffffffffff19166020820180517bffffffffffffffffffffffffffffffffffffffffffffffffffffffff8381831617835250505050620013ff60201b60201c565b50565b60008151905060006a636f6e736f6c652e6c6f679050602083016000808483855afa5050505050565b828054620014369062001800565b90600052602060002090601f0160209004810192826200145a5760008555620014a6565b82601f106200147557805160ff1916838001178555620014a6565b82800160010185558215620014a6579182015b82811115620014a557825182559160200191906001019062001488565b5b509050620014b5919062001655565b5090565b8280548282559060005260206000209081019282156200150d579160200282015b828111156200150c578251829080519060200190620014fb92919062001428565b5091602001919060010190620014da565b5b5090506200151c919062001674565b5090565b82805482825590600052602060002090810192821562001574579160200282015b82811115620015735782518290805190602001906200156292919062001428565b509160200191906001019062001541565b5b50905062001583919062001674565b5090565b828054828255906000526020600020908101928215620015db579160200282015b82811115620015da578251829080519060200190620015c992919062001428565b5091602001919060010190620015a8565b5b509050620015ea919062001674565b5090565b82805482825590600052602060002090810192821562001642579160200282015b82811115620016415782518290805190602001906200163092919062001428565b50916020019190600101906200160f565b5b50905062001651919062001674565b5090565b5b808211156200167057600081600090555060010162001656565b5090565b5b808211156200169857600081816200168e91906200169c565b5060010162001675565b5090565b508054620016aa9062001800565b6000825580601f10620016be5750620016df565b601f016020900490600052602060002090810190620016de919062001655565b5b50565b6000620016ef8262001747565b620016fb818562001752565b93506200170d818560208601620017ca565b620017188162001894565b840191505092915050565b600060208201905081810360008301526200173f8184620016e2565b905092915050565b600081519050919050565b600082825260208201905092915050565b60006200177082620017c0565b91506200177d83620017c0565b9250827fffffffffffffffffffffffffffffffffffffffffffffffffffffffffffffffff03821115620017b557620017b462001836565b5b828201905092915050565b6000819050919050565b60005b83811015620017ea578082015181840152602081019050620017cd565b83811115620017fa576000848401525b50505050565b600060028204905060018216806200181957607f821691505b6020821081141562001830576200182f62001865565b5b50919050565b7f4e487b7100000000000000000000000000000000000000000000000000000000600052601160045260246000fd5b7f4e487b7100000000000000000000000000000000000000000000000000000000600052602260045260246000fd5b6000601f19601f8301169050919050565b61482d80620018b56000396000f3fe608060405234801561001057600080fd5b50600436106101585760003560e01c806370a08231116100c3578063b187301f1161007c578063b187301f146103c5578063b88d4fde146103f5578063c575757a14610411578063c87b56dd14610441578063e985e9c514610471578063f2fde38b146104a157610158565b806370a0823114610317578063715018a6146103475780638da5cb5b1461035157806395d89b411461036f578063a0712d681461038d578063a22cb465146103a957610158565b80632de38d68116101155780632de38d681461023157806342842e0e146102615780634c0f38c21461027d5780635068d1de1461029b5780636352211e146102cb5780636f8b44b0146102fb57610158565b806301ffc9a71461015d57806306fdde031461018d578063081812fc146101ab578063095ea7b3146101db5780630ca1c5c9146101f757806323b872dd14610215575b600080fd5b61017760048036038101906101729190612cf4565b6104bd565b60405161018491906136cb565b60405180910390f35b61019561059f565b6040516101a291906136e6565b60405180910390f35b6101c560048036038101906101c09190612d46565b610631565b6040516101d29190613634565b60405180910390f35b6101f560048036038101906101f09190612cb8565b6106b6565b005b6101ff6107ce565b60405161020c9190613a06565b60405180910390f35b61022f600480360381019061022a9190612bb2565b6107df565b005b61024b60048036038101906102469190612d46565b61083f565b60405161025891906136e6565b60405180910390f35b61027b60048036038101906102769190612bb2565b610969565b005b610285610989565b6040516102929190613a06565b60405180910390f35b6102b560048036038101906102b09190612d46565b610993565b6040516102c291906136e6565b60405180910390f35b6102e560048036038101906102e09190612d46565b610b1a565b6040516102f29190613634565b60405180910390f35b61031560048036038101906103109190612d46565b610bcc565b005b610331600480360381019061032c9190612b4d565b610c52565b60405161033e9190613a06565b60405180910390f35b61034f610d0a565b005b610359610d92565b6040516103669190613634565b60405180910390f35b610377610dbc565b60405161038491906136e6565b60405180910390f35b6103a760048036038101906103a29190612d46565b610e4e565b005b6103c360048036038101906103be9190612c7c565b611284565b005b6103df60048036038101906103da9190612d46565b61129a565b6040516103ec91906136e6565b60405180910390f35b61040f600480360381019061040a9190612c01565b6113c4565b005b61042b60048036038101906104269190612d46565b611426565b60405161043891906136e6565b60405180910390f35b61045b60048036038101906104569190612d46565b611550565b60405161046891906136e6565b60405180910390f35b61048b60048036038101906104869190612b76565b6116a2565b60405161049891906136cb565b60405180910390f35b6104bb60048036038101906104b69190612b4d565b611736565b005b60007f80ac58cd000000000000000000000000000000000000000000000000000000007bffffffffffffffffffffffffffffffffffffffffffffffffffffffff1916827bffffffffffffffffffffffffffffffffffffffffffffffffffffffff1916148061058857507f5b5e139f000000000000000000000000000000000000000000000000000000007bffffffffffffffffffffffffffffffffffffffffffffffffffffffff1916827bffffffffffffffffffffffffffffffffffffffffffffffffffffffff1916145b806105985750610597826118c7565b5b9050919050565b6060600080546105ae90613cd3565b80601f01602080910402602001604051908101604052809291908181526020018280546105da90613cd3565b80156106275780601f106105fc57610100808354040283529160200191610627565b820191906000526020600020905b81548152906001019060200180831161060a57829003601f168201915b5050505050905090565b600061063c82611931565b61067b576040517f08c379a000000000000000000000000000000000000000000000000000000000815260040161067290613926565b60405180910390fd5b6004600083815260200190815260200160002060009054906101000a900473ffffffffffffffffffffffffffffffffffffffff169050919050565b60006106c182610b1a565b90508073ffffffffffffffffffffffffffffffffffffffff168373ffffffffffffffffffffffffffffffffffffffff161415610732576040517f08c379a0000000000000000000000000000000000000000000000000000000008152600401610729906139c6565b60405180910390fd5b8073ffffffffffffffffffffffffffffffffffffffff1661075161199d565b73ffffffffffffffffffffffffffffffffffffffff161480610780575061077f8161077a61199d565b6116a2565b5b6107bf576040517f08c379a00000000000000000000000000000000000000000000000000000000081526004016107b690613826565b60405180910390fd5b6107c983836119a5565b505050565b60006107da6008611a5e565b905090565b6107f06107ea61199d565b82611a6c565b61082f576040517f08c379a0000000000000000000000000000000000000000000000000000000008152600401610826906139e6565b60405180910390fd5b61083a838383611b4a565b505050565b6060600061087f61084f84611da6565b61085a601054611da6565b60405160200161086b9291906135b4565b604051602081830303815290604052611f53565b9050600c80549050816108929190613d7f565b9050600c81815481106108ce577f4e487b7100000000000000000000000000000000000000000000000000000000600052603260045260246000fd5b9060005260206000200180546108e390613cd3565b80601f016020809104026020016040519081016040528092919081815260200182805461090f90613cd3565b801561095c5780601f106109315761010080835404028352916020019161095c565b820191906000526020600020905b81548152906001019060200180831161093f57829003601f168201915b5050505050915050919050565b610984838383604051806020016040528060008152506113c4565b505050565b6000601154905090565b606060006109d36109a384611da6565b6109ae601054611da6565b6040516020016109bf929190613605565b604051602081830303815290604052611f53565b90506064816109e29190613d7f565b90506000601982116109f75760009050610a44565b60328211610a085760019050610a43565b60468211610a195760029050610a42565b60558211610a2a5760039050610a41565b605f8211610a3b5760049050610a40565b600590505b5b5b5b5b600f8181548110610a7e577f4e487b7100000000000000000000000000000000000000000000000000000000600052603260045260246000fd5b906000526020600020018054610a9390613cd3565b80601f0160208091040260200160405190810160405280929190818152602001828054610abf90613cd3565b8015610b0c5780601f10610ae157610100808354040283529160200191610b0c565b820191906000526020600020905b815481529060010190602001808311610aef57829003601f168201915b505050505092505050919050565b6000806002600084815260200190815260200160002060009054906101000a900473ffffffffffffffffffffffffffffffffffffffff169050600073ffffffffffffffffffffffffffffffffffffffff168173ffffffffffffffffffffffffffffffffffffffff161415610bc3576040517f08c379a0000000000000000000000000000000000000000000000000000000008152600401610bba90613886565b60405180910390fd5b80915050919050565b610bd461199d565b73ffffffffffffffffffffffffffffffffffffffff16610bf2610d92565b73ffffffffffffffffffffffffffffffffffffffff1614610c48576040517f08c379a0000000000000000000000000000000000000000000000000000000008152600401610c3f90613946565b60405180910390fd5b8060118190555050565b60008073ffffffffffffffffffffffffffffffffffffffff168273ffffffffffffffffffffffffffffffffffffffff161415610cc3576040517f08c379a0000000000000000000000000000000000000000000000000000000008152600401610cba90613866565b60405180910390fd5b600360008373ffffffffffffffffffffffffffffffffffffffff1673ffffffffffffffffffffffffffffffffffffffff168152602001908152602001600020549050919050565b610d1261199d565b73ffffffffffffffffffffffffffffffffffffffff16610d30610d92565b73ffffffffffffffffffffffffffffffffffffffff1614610d86576040517f08c379a0000000000000000000000000000000000000000000000000000000008152600401610d7d90613946565b60405180910390fd5b610d906000611f86565b565b6000600760009054906101000a900473ffffffffffffffffffffffffffffffffffffffff16905090565b606060018054610dcb90613cd3565b80601f0160208091040260200160405190810160405280929190818152602001828054610df790613cd3565b8015610e445780601f10610e1957610100808354040283529160200191610e44565b820191906000526020600020905b815481529060010190602001808311610e2757829003601f168201915b5050505050905090565b601154610e5b6008611a5e565b10610e9b576040517f08c379a0000000000000000000000000000000000000000000000000000000008152600401610e92906139a6565b60405180910390fd5b601254811115610ee0576040517f08c379a0000000000000000000000000000000000000000000000000000000008152600401610ed790613846565b60405180910390fd5b60008111610f23576040517f08c379a0000000000000000000000000000000000000000000000000000000008152600401610f1a906138c6565b60405180910390fd5b60115481610f316008611a5e565b610f3b9190613b08565b1115610f7c576040517f08c379a0000000000000000000000000000000000000000000000000000000008152600401610f7390613806565b60405180910390fd5b60008167ffffffffffffffff811115610fbe577f4e487b7100000000000000000000000000000000000000000000000000000000600052604160045260246000fd5b604051908082528060200260200182016040528015610fec5781602001602082028036833780820191505090505b50905060005b828110156112465760006110066008611a5e565b905060006110138261083f565b905060006110208361129a565b9050600061102d84611426565b9050600061103a85610993565b9050600084848460405160200161105393929190613447565b60405160208183030381529060405290506000600983600a84600b60405160200161108295949392919061348e565b604051602081830303815290604052905060006110c7836110a28461204c565b6040516020016110b3929190613559565b60405160208183030381529060405261204c565b90506000816040516020016110dc91906135e3565b604051602081830303815290604052905061112b6040518060400160405280601581526020017f0a2d2d2d2d2d2d2d2d2d2d2d2d2d2d2d2d2d2d2d2d000000000000000000000081525061182e565b6111538160405160200161113f91906134d9565b60405160208183030381529060405261182e565b6111916040518060400160405280601581526020017f2d2d2d2d2d2d2d2d2d2d2d2d2d2d2d2d2d2d2d2d0a000000000000000000000081525061182e565b61119b338a61220a565b6111a58982612228565b6111c8604051806060016040528060258152602001614793602591398a3361229c565b6111d2600861233b565b44426111de9190613b08565b601081905550888b8b8151811061121e577f4e487b7100000000000000000000000000000000000000000000000000000000600052603260045260246000fd5b602002602001018181525050505050505050505050808061123e90613d36565b915050610ff2565b507fc8bb94389b2f9aeae97c824a1ebe0ce26833c5b5af1217688e37d9c685d7b072338260405161127892919061369b565b60405180910390a15050565b61129661128f61199d565b8383612351565b5050565b606060006112da6112aa84611da6565b6112b5601054611da6565b6040516020016112c692919061352a565b604051602081830303815290604052611f53565b9050600d80549050816112ed9190613d7f565b9050600d8181548110611329577f4e487b7100000000000000000000000000000000000000000000000000000000600052603260045260246000fd5b90600052602060002001805461133e90613cd3565b80601f016020809104026020016040519081016040528092919081815260200182805461136a90613cd3565b80156113b75780601f1061138c576101008083540402835291602001916113b7565b820191906000526020600020905b81548152906001019060200180831161139a57829003601f168201915b5050505050915050919050565b6113d56113cf61199d565b83611a6c565b611414576040517f08c379a000000000000000000000000000000000000000000000000000000000815260040161140b906139e6565b60405180910390fd5b611420848484846124be565b50505050565b6060600061146661143684611da6565b611441601054611da6565b6040516020016114529291906134fb565b604051602081830303815290604052611f53565b9050600e80549050816114799190613d7f565b9050600e81815481106114b5577f4e487b7100000000000000000000000000000000000000000000000000000000600052603260045260246000fd5b9060005260206000200180546114ca90613cd3565b80601f01602080910402602001604051908101604052809291908181526020018280546114f690613cd3565b80156115435780601f1061151857610100808354040283529160200191611543565b820191906000526020600020905b81548152906001019060200180831161152657829003601f168201915b5050505050915050919050565b606061155b82611931565b61159a576040517f08c379a000000000000000000000000000000000000000000000000000000000815260040161159190613906565b60405180910390fd5b60006006600084815260200190815260200160002080546115ba90613cd3565b80601f01602080910402602001604051908101604052809291908181526020018280546115e690613cd3565b80156116335780601f1061160857610100808354040283529160200191611633565b820191906000526020600020905b81548152906001019060200180831161161657829003601f168201915b50505050509050600061164461251a565b905060008151141561165a57819250505061169d565b60008251111561168f578082604051602001611677929190613423565b6040516020818303038152906040529250505061169d565b61169884612531565b925050505b919050565b6000600560008473ffffffffffffffffffffffffffffffffffffffff1673ffffffffffffffffffffffffffffffffffffffff16815260200190815260200160002060008373ffffffffffffffffffffffffffffffffffffffff1673ffffffffffffffffffffffffffffffffffffffff16815260200190815260200160002060009054906101000a900460ff16905092915050565b61173e61199d565b73ffffffffffffffffffffffffffffffffffffffff1661175c610d92565b73ffffffffffffffffffffffffffffffffffffffff16146117b2576040517f08c379a00000000000000000000000000000000000000000000000000000000081526004016117a990613946565b60405180910390fd5b600073ffffffffffffffffffffffffffffffffffffffff168173ffffffffffffffffffffffffffffffffffffffff161415611822576040517f08c379a000000000000000000000000000000000000000000000000000000000815260040161181990613766565b60405180910390fd5b61182b81611f86565b50565b6118c48160405160240161184291906136e6565b6040516020818303038152906040527f41304fac000000000000000000000000000000000000000000000000000000007bffffffffffffffffffffffffffffffffffffffffffffffffffffffff19166020820180517bffffffffffffffffffffffffffffffffffffffffffffffffffffffff83818316178352505050506125d8565b50565b60007f01ffc9a7000000000000000000000000000000000000000000000000000000007bffffffffffffffffffffffffffffffffffffffffffffffffffffffff1916827bffffffffffffffffffffffffffffffffffffffffffffffffffffffff1916149050919050565b60008073ffffffffffffffffffffffffffffffffffffffff166002600084815260200190815260200160002060009054906101000a900473ffffffffffffffffffffffffffffffffffffffff1673ffffffffffffffffffffffffffffffffffffffff1614159050919050565b600033905090565b816004600083815260200190815260200160002060006101000a81548173ffffffffffffffffffffffffffffffffffffffff021916908373ffffffffffffffffffffffffffffffffffffffff160217905550808273ffffffffffffffffffffffffffffffffffffffff16611a1883610b1a565b73ffffffffffffffffffffffffffffffffffffffff167f8c5be1e5ebec7d5bd14f71427d1e84f3dd0314c0f7b2291e5b200ac8c7c3b92560405160405180910390a45050565b600081600001549050919050565b6000611a7782611931565b611ab6576040517f08c379a0000000000000000000000000000000000000000000000000000000008152600401611aad906137e6565b60405180910390fd5b6000611ac183610b1a565b90508073ffffffffffffffffffffffffffffffffffffffff168473ffffffffffffffffffffffffffffffffffffffff161480611b3057508373ffffffffffffffffffffffffffffffffffffffff16611b1884610631565b73ffffffffffffffffffffffffffffffffffffffff16145b80611b415750611b4081856116a2565b5b91505092915050565b8273ffffffffffffffffffffffffffffffffffffffff16611b6a82610b1a565b73ffffffffffffffffffffffffffffffffffffffff1614611bc0576040517f08c379a0000000000000000000000000000000000000000000000000000000008152600401611bb790613966565b60405180910390fd5b600073ffffffffffffffffffffffffffffffffffffffff168273ffffffffffffffffffffffffffffffffffffffff161415611c30576040517f08c379a0000000000000000000000000000000000000000000000000000000008152600401611c27906137a6565b60405180910390fd5b611c3b838383612601565b611c466000826119a5565b6001600360008573ffffffffffffffffffffffffffffffffffffffff1673ffffffffffffffffffffffffffffffffffffffff1681526020019081526020016000206000828254611c969190613be9565b925050819055506001600360008473ffffffffffffffffffffffffffffffffffffffff1673ffffffffffffffffffffffffffffffffffffffff1681526020019081526020016000206000828254611ced9190613b08565b92505081905550816002600083815260200190815260200160002060006101000a81548173ffffffffffffffffffffffffffffffffffffffff021916908373ffffffffffffffffffffffffffffffffffffffff160217905550808273ffffffffffffffffffffffffffffffffffffffff168473ffffffffffffffffffffffffffffffffffffffff167fddf252ad1be2c89b69c2b068fc378daa952ba7f163c4a11628f55a4df523b3ef60405160405180910390a4505050565b60606000821415611dee576040518060400160405280600181526020017f30000000000000000000000000000000000000000000000000000000000000008152509050611f4e565b600082905060005b60008214611e20578080611e0990613d36565b915050600a82611e199190613b5e565b9150611df6565b60008167ffffffffffffffff811115611e62577f4e487b7100000000000000000000000000000000000000000000000000000000600052604160045260246000fd5b6040519080825280601f01601f191660200182016040528015611e945781602001600182028036833780820191505090505b5090505b60008514611f4757600182611ead9190613be9565b9150600a85611ebc9190613d7f565b6030611ec89190613b08565b60f81b818381518110611f04577f4e487b7100000000000000000000000000000000000000000000000000000000600052603260045260246000fd5b60200101907effffffffffffffffffffffffffffffffffffffffffffffffffffffffffffff1916908160001a905350600a85611f409190613b5e565b9450611e98565b8093505050505b919050565b600081604051602001611f66919061340c565b6040516020818303038152906040528051906020012060001c9050919050565b6000600760009054906101000a900473ffffffffffffffffffffffffffffffffffffffff16905081600760006101000a81548173ffffffffffffffffffffffffffffffffffffffff021916908373ffffffffffffffffffffffffffffffffffffffff1602179055508173ffffffffffffffffffffffffffffffffffffffff168173ffffffffffffffffffffffffffffffffffffffff167f8be0079c531659141344cd1fd0a4f28419497f9722a3daafe3b4186f6b6457e060405160405180910390a35050565b606060008251905060008114156120755760405180602001604052806000815250915050612205565b600060036002836120869190613b08565b6120909190613b5e565b600461209c9190613b8f565b905060006020826120ad9190613b08565b67ffffffffffffffff8111156120ec577f4e487b7100000000000000000000000000000000000000000000000000000000600052604160045260246000fd5b6040519080825280601f01601f19166020018201604052801561211e5781602001600182028036833780820191505090505b50905060006040518060600160405280604081526020016147b8604091399050600181016020830160005b868110156121c25760038101905062ffffff818a015116603f8160121c168401518060081b905060ff603f83600c1c1686015116810190508060081b905060ff603f8360061c1686015116810190508060081b905060ff603f831686015116810190508060e01b90508084526004840193505050612149565b5060038606600181146121dc57600281146121ec576121f7565b613d3d60f01b60028303526121f7565b603d60f81b60018303525b508484525050819450505050505b919050565b612224828260405180602001604052806000815250612606565b5050565b61223182611931565b612270576040517f08c379a0000000000000000000000000000000000000000000000000000000008152600401612267906138a6565b60405180910390fd5b806006600084815260200190815260200160002090805190602001906122979291906129d9565b505050565b6123368383836040516024016122b493929190613708565b6040516020818303038152906040527fe3849f79000000000000000000000000000000000000000000000000000000007bffffffffffffffffffffffffffffffffffffffffffffffffffffffff19166020820180517bffffffffffffffffffffffffffffffffffffffffffffffffffffffff83818316178352505050506125d8565b505050565b6001816000016000828254019250508190555050565b8173ffffffffffffffffffffffffffffffffffffffff168373ffffffffffffffffffffffffffffffffffffffff1614156123c0576040517f08c379a00000000000000000000000000000000000000000000000000000000081526004016123b7906137c6565b60405180910390fd5b80600560008573ffffffffffffffffffffffffffffffffffffffff1673ffffffffffffffffffffffffffffffffffffffff16815260200190815260200160002060008473ffffffffffffffffffffffffffffffffffffffff1673ffffffffffffffffffffffffffffffffffffffff16815260200190815260200160002060006101000a81548160ff0219169083151502179055508173ffffffffffffffffffffffffffffffffffffffff168373ffffffffffffffffffffffffffffffffffffffff167f17307eab39ab6107e8899845ad3d59bd9653f200f220920489ca2b5937696c31836040516124b191906136cb565b60405180910390a3505050565b6124c9848484611b4a565b6124d584848484612661565b612514576040517f08c379a000000000000000000000000000000000000000000000000000000000815260040161250b90613746565b60405180910390fd5b50505050565b606060405180602001604052806000815250905090565b606061253c82611931565b61257b576040517f08c379a000000000000000000000000000000000000000000000000000000000815260040161257290613986565b60405180910390fd5b600061258561251a565b905060008151116125a557604051806020016040528060008152506125d0565b806125af84611da6565b6040516020016125c0929190613423565b6040516020818303038152906040525b915050919050565b60008151905060006a636f6e736f6c652e6c6f679050602083016000808483855afa5050505050565b505050565b61261083836127f8565b61261d6000848484612661565b61265c576040517f08c379a000000000000000000000000000000000000000000000000000000000815260040161265390613746565b60405180910390fd5b505050565b60006126828473ffffffffffffffffffffffffffffffffffffffff166129c6565b156127eb578373ffffffffffffffffffffffffffffffffffffffff1663150b7a026126ab61199d565b8786866040518563ffffffff1660e01b81526004016126cd949392919061364f565b602060405180830381600087803b1580156126e757600080fd5b505af192505050801561271857506040513d601f19601f820116820180604052508101906127159190612d1d565b60015b61279b573d8060008114612748576040519150601f19603f3d011682016040523d82523d6000602084013e61274d565b606091505b50600081511415612793576040517f08c379a000000000000000000000000000000000000000000000000000000000815260040161278a90613746565b60405180910390fd5b805181602001fd5b63150b7a0260e01b7bffffffffffffffffffffffffffffffffffffffffffffffffffffffff1916817bffffffffffffffffffffffffffffffffffffffffffffffffffffffff1916149150506127f0565b600190505b949350505050565b600073ffffffffffffffffffffffffffffffffffffffff168273ffffffffffffffffffffffffffffffffffffffff161415612868576040517f08c379a000000000000000000000000000000000000000000000000000000000815260040161285f906138e6565b60405180910390fd5b61287181611931565b156128b1576040517f08c379a00000000000000000000000000000000000000000000000000000000081526004016128a890613786565b60405180910390fd5b6128bd60008383612601565b6001600360008473ffffffffffffffffffffffffffffffffffffffff1673ffffffffffffffffffffffffffffffffffffffff168152602001908152602001600020600082825461290d9190613b08565b92505081905550816002600083815260200190815260200160002060006101000a81548173ffffffffffffffffffffffffffffffffffffffff021916908373ffffffffffffffffffffffffffffffffffffffff160217905550808273ffffffffffffffffffffffffffffffffffffffff16600073ffffffffffffffffffffffffffffffffffffffff167fddf252ad1be2c89b69c2b068fc378daa952ba7f163c4a11628f55a4df523b3ef60405160405180910390a45050565b600080823b905060008111915050919050565b8280546129e590613cd3565b90600052602060002090601f016020900481019282612a075760008555612a4e565b82601f10612a2057805160ff1916838001178555612a4e565b82800160010185558215612a4e579182015b82811115612a4d578251825591602001919060010190612a32565b5b509050612a5b9190612a5f565b5090565b5b80821115612a78576000816000905550600101612a60565b5090565b6000612a8f612a8a84613a46565b613a21565b905082815260208101848484011115612aa757600080fd5b612ab2848285613c91565b509392505050565b600081359050612ac981614736565b92915050565b600081359050612ade8161474d565b92915050565b600081359050612af381614764565b92915050565b600081519050612b0881614764565b92915050565b600082601f830112612b1f57600080fd5b8135612b2f848260208601612a7c565b91505092915050565b600081359050612b478161477b565b92915050565b600060208284031215612b5f57600080fd5b6000612b6d84828501612aba565b91505092915050565b60008060408385031215612b8957600080fd5b6000612b9785828601612aba565b9250506020612ba885828601612aba565b9150509250929050565b600080600060608486031215612bc757600080fd5b6000612bd586828701612aba565b9350506020612be686828701612aba565b9250506040612bf786828701612b38565b9150509250925092565b60008060008060808587031215612c1757600080fd5b6000612c2587828801612aba565b9450506020612c3687828801612aba565b9350506040612c4787828801612b38565b925050606085013567ffffffffffffffff811115612c6457600080fd5b612c7087828801612b0e565b91505092959194509250565b60008060408385031215612c8f57600080fd5b6000612c9d85828601612aba565b9250506020612cae85828601612acf565b9150509250929050565b60008060408385031215612ccb57600080fd5b6000612cd985828601612aba565b9250506020612cea85828601612b38565b9150509250929050565b600060208284031215612d0657600080fd5b6000612d1484828501612ae4565b91505092915050565b600060208284031215612d2f57600080fd5b6000612d3d84828501612af9565b91505092915050565b600060208284031215612d5857600080fd5b6000612d6684828501612b38565b91505092915050565b6000612d7b83836133ee565b60208301905092915050565b612d9081613c1d565b82525050565b6000612da182613a9c565b612dab8185613aca565b9350612db683613a77565b8060005b83811015612de7578151612dce8882612d6f565b9750612dd983613abd565b925050600181019050612dba565b5085935050505092915050565b612dfd81613c2f565b82525050565b6000612e0e82613aa7565b612e188185613adb565b9350612e28818560208601613ca0565b612e3181613e6c565b840191505092915050565b6000612e4782613ab2565b612e518185613aec565b9350612e61818560208601613ca0565b612e6a81613e6c565b840191505092915050565b6000612e8082613ab2565b612e8a8185613afd565b9350612e9a818560208601613ca0565b80840191505092915050565b60008154612eb381613cd3565b612ebd8186613afd565b94506001821660008114612ed85760018114612ee957612f1c565b60ff19831686528186019350612f1c565b612ef285613a87565b60005b83811015612f1457815481890152600182019150602081019050612ef5565b838801955050505b50505092915050565b6000612f32602583613afd565b9150612f3d82613e7d565b602582019050919050565b6000612f55603283613aec565b9150612f6082613ecc565b604082019050919050565b6000612f78602683613aec565b9150612f8382613f1b565b604082019050919050565b6000612f9b600283613afd565b9150612fa682613f6a565b600282019050919050565b6000612fbe601c83613aec565b9150612fc982613f93565b602082019050919050565b6000612fe1600a83613afd565b9150612fec82613fbc565b600a82019050919050565b6000613004602483613aec565b915061300f82613fe5565b604082019050919050565b6000613027601983613aec565b915061303282614034565b602082019050919050565b600061304a600b83613afd565b91506130558261405d565b600b82019050919050565b600061306d602c83613aec565b915061307882614086565b604082019050919050565b6000613090602983613aec565b915061309b826140d5565b604082019050919050565b60006130b3600183613afd565b91506130be82614124565b600182019050919050565b60006130d6603883613aec565b91506130e18261414d565b604082019050919050565b60006130f9602983613aec565b91506131048261419c565b604082019050919050565b600061311c602a83613aec565b9150613127826141eb565b604082019050919050565b600061313f602983613aec565b915061314a8261423a565b604082019050919050565b6000613162602e83613aec565b915061316d82614289565b604082019050919050565b6000613185602283613aec565b9150613190826142d8565b604082019050919050565b60006131a8602483613afd565b91506131b382614327565b602482019050919050565b60006131cb600283613afd565b91506131d682614376565b600282019050919050565b60006131ee602083613aec565b91506131f98261439f565b602082019050919050565b6000613211603183613aec565b915061321c826143c8565b604082019050919050565b6000613234602c83613aec565b915061323f82614417565b604082019050919050565b6000613257602083613aec565b915061326282614466565b602082019050919050565b600061327a603c83613afd565b91506132858261448f565b603c82019050919050565b600061329d602983613aec565b91506132a8826144de565b604082019050919050565b60006132c0602f83613aec565b91506132cb8261452d565b604082019050919050565b60006132e3600a83613afd565b91506132ee8261457c565b600a82019050919050565b6000613306602d83613aec565b9150613311826145a5565b604082019050919050565b6000613329602183613aec565b9150613334826145f4565b604082019050919050565b600061334c600a83613afd565b915061335782614643565b600a82019050919050565b600061336f601d83613afd565b915061337a8261466c565b601d82019050919050565b6000613392603183613aec565b915061339d82614695565b604082019050919050565b60006133b5600883613afd565b91506133c0826146e4565b600882019050919050565b60006133d8600a83613afd565b91506133e38261470d565b600a82019050919050565b6133f781613c87565b82525050565b61340681613c87565b82525050565b60006134188284612e75565b915081905092915050565b600061342f8285612e75565b915061343b8284612e75565b91508190509392505050565b60006134538286612e75565b915061345e826130a6565b915061346a8285612e75565b9150613475826133a8565b91506134818284612e75565b9150819050949350505050565b600061349a8288612ea6565b91506134a68287612e75565b91506134b28286612ea6565b91506134be8285612e75565b91506134ca8284612ea6565b91508190509695505050505050565b60006134e482612f25565b91506134f08284612e75565b915081905092915050565b600061350682612fd4565b91506135128285612e75565b915061351e8284612e75565b91508190509392505050565b60006135358261303d565b91506135418285612e75565b915061354d8284612e75565b91508190509392505050565b6000613564826132d6565b91506135708285612e75565b915061357b82612f8e565b91506135868261326d565b91506135918261319b565b915061359d8284612e75565b91506135a8826131be565b91508190509392505050565b60006135bf8261333f565b91506135cb8285612e75565b91506135d78284612e75565b91508190509392505050565b60006135ee82613362565b91506135fa8284612e75565b915081905092915050565b6000613610826133cb565b915061361c8285612e75565b91506136288284612e75565b91508190509392505050565b60006020820190506136496000830184612d87565b92915050565b60006080820190506136646000830187612d87565b6136716020830186612d87565b61367e60408301856133fd565b81810360608301526136908184612e03565b905095945050505050565b60006040820190506136b06000830185612d87565b81810360208301526136c28184612d96565b90509392505050565b60006020820190506136e06000830184612df4565b92915050565b600060208201905081810360008301526137008184612e3c565b905092915050565b600060608201905081810360008301526137228186612e3c565b905061373160208301856133fd565b61373e6040830184612d87565b949350505050565b6000602082019050818103600083015261375f81612f48565b9050919050565b6000602082019050818103600083015261377f81612f6b565b9050919050565b6000602082019050818103600083015261379f81612fb1565b9050919050565b600060208201905081810360008301526137bf81612ff7565b9050919050565b600060208201905081810360008301526137df8161301a565b9050919050565b600060208201905081810360008301526137ff81613060565b9050919050565b6000602082019050818103600083015261381f81613083565b9050919050565b6000602082019050818103600083015261383f816130c9565b9050919050565b6000602082019050818103600083015261385f816130ec565b9050919050565b6000602082019050818103600083015261387f8161310f565b9050919050565b6000602082019050818103600083015261389f81613132565b9050919050565b600060208201905081810360008301526138bf81613155565b9050919050565b600060208201905081810360008301526138df81613178565b9050919050565b600060208201905081810360008301526138ff816131e1565b9050919050565b6000602082019050818103600083015261391f81613204565b9050919050565b6000602082019050818103600083015261393f81613227565b9050919050565b6000602082019050818103600083015261395f8161324a565b9050919050565b6000602082019050818103600083015261397f81613290565b9050919050565b6000602082019050818103600083015261399f816132b3565b9050919050565b600060208201905081810360008301526139bf816132f9565b9050919050565b600060208201905081810360008301526139df8161331c565b9050919050565b600060208201905081810360008301526139ff81613385565b9050919050565b6000602082019050613a1b60008301846133fd565b92915050565b6000613a2b613a3c565b9050613a378282613d05565b919050565b6000604051905090565b600067ffffffffffffffff821115613a6157613a60613e3d565b5b613a6a82613e6c565b9050602081019050919050565b6000819050602082019050919050565b60008190508160005260206000209050919050565b600081519050919050565b600081519050919050565b600081519050919050565b6000602082019050919050565b600082825260208201905092915050565b600082825260208201905092915050565b600082825260208201905092915050565b600081905092915050565b6000613b1382613c87565b9150613b1e83613c87565b9250827fffffffffffffffffffffffffffffffffffffffffffffffffffffffffffffffff03821115613b5357613b52613db0565b5b828201905092915050565b6000613b6982613c87565b9150613b7483613c87565b925082613b8457613b83613ddf565b5b828204905092915050565b6000613b9a82613c87565b9150613ba583613c87565b9250817fffffffffffffffffffffffffffffffffffffffffffffffffffffffffffffffff0483118215151615613bde57613bdd613db0565b5b828202905092915050565b6000613bf482613c87565b9150613bff83613c87565b925082821015613c1257613c11613db0565b5b828203905092915050565b6000613c2882613c67565b9050919050565b60008115159050919050565b60007fffffffff0000000000000000000000000000000000000000000000000000000082169050919050565b600073ffffffffffffffffffffffffffffffffffffffff82169050919050565b6000819050919050565b82818337600083830152505050565b60005b83811015613cbe578082015181840152602081019050613ca3565b83811115613ccd576000848401525b50505050565b60006002820490506001821680613ceb57607f821691505b60208210811415613cff57613cfe613e0e565b5b50919050565b613d0e82613e6c565b810181811067ffffffffffffffff82111715613d2d57613d2c613e3d565b5b80604052505050565b6000613d4182613c87565b91507fffffffffffffffffffffffffffffffffffffffffffffffffffffffffffffffff821415613d7457613d73613db0565b5b600182019050919050565b6000613d8a82613c87565b9150613d9583613c87565b925082613da557613da4613ddf565b5b828206905092915050565b7f4e487b7100000000000000000000000000000000000000000000000000000000600052601160045260246000fd5b7f4e487b7100000000000000000000000000000000000000000000000000000000600052601260045260246000fd5b7f4e487b7100000000000000000000000000000000000000000000000000000000600052602260045260246000fd5b7f4e487b7100000000000000000000000000000000000000000000000000000000600052604160045260246000fd5b6000601f19601f8301169050919050565b7f68747470733a2f2f6e6674707265766965772e30786465762e636f6465732f3f60008201527f636f64653d000000000000000000000000000000000000000000000000000000602082015250565b7f4552433732313a207472616e7366657220746f206e6f6e20455243373231526560008201527f63656976657220696d706c656d656e7465720000000000000000000000000000602082015250565b7f4f776e61626c653a206e6577206f776e657220697320746865207a65726f206160008201527f6464726573730000000000000000000000000000000000000000000000000000602082015250565b7f222c000000000000000000000000000000000000000000000000000000000000600082015250565b7f4552433732313a20746f6b656e20616c7265616479206d696e74656400000000600082015250565b7f54484952445f574f524400000000000000000000000000000000000000000000600082015250565b7f4552433732313a207472616e7366657220746f20746865207a65726f2061646460008201527f7265737300000000000000000000000000000000000000000000000000000000602082015250565b7f4552433732313a20617070726f766520746f2063616c6c657200000000000000600082015250565b7f5345434f4e445f574f5244000000000000000000000000000000000000000000600082015250565b7f4552433732313a206f70657261746f7220717565727920666f72206e6f6e657860008201527f697374656e7420746f6b656e0000000000000000000000000000000000000000602082015250565b7f4e6f7420656e6f756768204e4654732072656d61696e696e6720696e20746f7460008201527f616c20737570706c790000000000000000000000000000000000000000000000602082015250565b7f2000000000000000000000000000000000000000000000000000000000000000600082015250565b7f4552433732313a20617070726f76652063616c6c6572206973206e6f74206f7760008201527f6e6572206e6f7220617070726f76656420666f7220616c6c0000000000000000602082015250565b7f43616e206e6f74206d696e742074686973206d616e7920696e206f6e6520747260008201527f616e73616374696f6e0000000000000000000000000000000000000000000000602082015250565b7f4552433732313a2062616c616e636520717565727920666f7220746865207a6560008201527f726f206164647265737300000000000000000000000000000000000000000000602082015250565b7f4552433732313a206f776e657220717565727920666f72206e6f6e657869737460008201527f656e7420746f6b656e0000000000000000000000000000000000000000000000602082015250565b7f45524337323155524953746f726167653a2055524920736574206f66206e6f6e60008201527f6578697374656e7420746f6b656e000000000000000000000000000000000000602082015250565b7f4d696e7420616d6f756e74206d7573742062652067726561746572207468616e60008201527f2030000000000000000000000000000000000000000000000000000000000000602082015250565b7f22696d616765223a2022646174613a696d6167652f7376672b786d6c3b62617360008201527f6536342c00000000000000000000000000000000000000000000000000000000602082015250565b7f227d000000000000000000000000000000000000000000000000000000000000600082015250565b7f4552433732313a206d696e7420746f20746865207a65726f2061646472657373600082015250565b7f45524337323155524953746f726167653a2055524920717565727920666f722060008201527f6e6f6e6578697374656e7420746f6b656e000000000000000000000000000000602082015250565b7f4552433732313a20617070726f76656420717565727920666f72206e6f6e657860008201527f697374656e7420746f6b656e0000000000000000000000000000000000000000602082015250565b7f4f776e61626c653a2063616c6c6572206973206e6f7420746865206f776e6572600082015250565b7f226465736372697074696f6e223a202241207069656365206f6620657175697060008201527f6d656e7420776f726e20627920616e20616476656e7475726572222c00000000602082015250565b7f4552433732313a207472616e73666572206f6620746f6b656e2074686174206960008201527f73206e6f74206f776e0000000000000000000000000000000000000000000000602082015250565b7f4552433732314d657461646174613a2055524920717565727920666f72206e6f60008201527f6e6578697374656e7420746f6b656e0000000000000000000000000000000000602082015250565b7f7b226e616d65223a202200000000000000000000000000000000000000000000600082015250565b7f536f7272792c207468697320636f6c6c656374696f6e20686173206265656e2060008201527f66756c6c79206d696e7465642e00000000000000000000000000000000000000602082015250565b7f4552433732313a20617070726f76616c20746f2063757272656e74206f776e6560008201527f7200000000000000000000000000000000000000000000000000000000000000602082015250565b7f46495253545f574f524400000000000000000000000000000000000000000000600082015250565b7f646174613a6170706c69636174696f6e2f6a736f6e3b6261736536342c000000600082015250565b7f4552433732313a207472616e736665722063616c6c6572206973206e6f74206f60008201527f776e6572206e6f7220617070726f766564000000000000000000000000000000602082015250565b7f206f662074686520000000000000000000000000000000000000000000000000600082015250565b7f4241434b47524f554e4400000000000000000000000000000000000000000000600082015250565b61473f81613c1d565b811461474a57600080fd5b50565b61475681613c2f565b811461476157600080fd5b50565b61476d81613c3b565b811461477857600080fd5b50565b61478481613c87565b811461478f57600080fd5b5056fe416e204e465420772f20494420257320686173206265656e206d696e74656420746f2025734142434445464748494a4b4c4d4e4f505152535455565758595a6162636465666768696a6b6c6d6e6f707172737475767778797a303132333435363738392b2fa2646970667358221220a4428f0ebdacc9812d5f2b51f6c2eb9e6c20827d08afdd59399d4aa3f50edb4e64736f6c6343000804003329272f3e3c7465787420783d273530252720793d273530252720636c6173733d27626173652720646f6d696e616e742d626173656c696e653d276d6964646c652720746578742d616e63686f723d276d6964646c65273e3c73766720786d6c6e733d27687474703a2f2f7777772e77332e6f72672f323030302f73766727207072657365727665417370656374526174696f3d27784d696e594d696e206d656574272076696577426f783d273020302033353020333530273e3c6c696e6561724772616469656e742069643d2766272078313d2730272078323d2731272079313d2730272079323d2731273e3c73746f70206f66667365743d273025272073746f702d636f6c6f723d2723626463336337272f3e3c73746f70206f66667365743d2731303025272073746f702d636f6c6f723d2723326333653530272f3e3c2f6c696e6561724772616469656e743e3c6c696e6561724772616469656e742069643d2765272078313d2730272078323d2731272079313d2730272079323d2731273e3c73746f70206f66667365743d273025272073746f702d636f6c6f723d2723324335333634272f3e3c73746f70206f66667365743d27353025272073746f702d636f6c6f723d2723323033413433272f3e3c73746f70206f66667365743d2731303025272073746f702d636f6c6f723d2723304632303237272f3e3c2f6c696e6561724772616469656e743e3c6c696e6561724772616469656e742069643d2764272078313d2730272078323d2731272079313d2730272079323d2731273e3c73746f70206f66667365743d273025272073746f702d636f6c6f723d2723306639623066272f3e3c73746f70206f66667365743d2731303025272073746f702d636f6c6f723d2723303631373030272f3e3c2f6c696e6561724772616469656e743e3c6c696e6561724772616469656e742069643d2763272078313d2730272078323d2731272079313d2730272079323d2731273e3c73746f70206f66667365743d273025272073746f702d636f6c6f723d2723314342354530272f3e3c73746f70206f66667365743d2731303025272073746f702d636f6c6f723d2723303030303436272f3e3c2f6c696e6561724772616469656e743e3c6c696e6561724772616469656e742069643d2762272078313d2730272078323d2731272079313d2730272079323d2731273e3c73746f70206f66667365743d273025272073746f702d636f6c6f723d2723453130304646272f3e3c73746f70206f66667365743d2731303025272073746f702d636f6c6f723d2723374630304646272f3e3c2f6c696e6561724772616469656e743e3c6c696e6561724772616469656e742069643d2761272078313d2730272078323d2731272079313d2730272079323d2731273e3c73746f70206f66667365743d273025272073746f702d636f6c6f723d2723663561663139272f3e3c73746f70206f66667365743d2731303025272073746f702d636f6c6f723d2723663132373131272f3e3c2f6c696e6561724772616469656e743e3c7374796c653e2e62617365207b2066696c6c3a2077686974653b20666f6e742d66616d696c793a2073657269663b20666f6e742d73697a653a20313470783b207d3c2f7374796c653e3c726563742077696474683d273130302527206865696768743d2731303025272066696c6c3d2775726c2823",
  "linkReferences": {},
  "deployedLinkReferences": {}
}